:1000000028C04CC0B9C44AC049C06CC447C046C02F
:1000100045C044C043C042C041C040C03FC00000D2
:10002000000036000000000037000000000038002B
:10003000020202020202020202020102040810206D
:100040002004100801020000040000000000A506C2
:10005000330711241FBECFE5D2E0DEBFCDBF21E0C4
:10006000A2E9B0E001C01D92A73DB207E1F710E0A0
:10007000A0E6B0E0E8E0F9E102C005900D92A239F7
:10008000B107D9F710E0C8E2D0E003C02197FE0124
:1000900025DAC732D107D1F7E9D42ACCB1CFCF9234
:1000A000DF92EF92FF920F931F93CF93DF936C0138
:1000B0007A018B01C0E0D0E0CE15DF0589F0D801D0
:1000C0006D918D01D601ED91FC910190F081E02DB3
:1000D000C6010995892B11F47E0102C02196ECCF4F
:1000E000C701DF91CF911F910F91FF90EF90DF90AB
:1000F000CF90089590E0FC01EC5BFF4F3491FC0140
:10010000E65CFF4F2491FC01E05DFF4FE491EE239C
:1001100039F1332399F0323071F028F4313071F431
:100120008AB58F770AC0333011F0343039F48CB58A
:100130008F7D8CBD03C08AB58F7D8ABDF0E0EE0F48
:10014000FF1FE65DFF4FA591B4918FB7F894EC9136
:10015000611103C020952E2301C02E2B2C938FBF3D
:100160000895CF93DF9390E0FC01E65CFF4F24916C
:10017000FC01E05DFF4F8491882361F190E0880FDE
:10018000991FFC01EC5DFF4FC591D491FC01E65D28
:10019000FF4FA591B491611109C09FB7F894888170
:1001A000209582238883EC912E230BC0623061F46A
:1001B0009FB7F8943881822F809583238883EC91B0
:1001C0002E2B2C939FBF06C08FB7F894E8812E2B5F
:1001D00028838FBFDF91CF9108953FB7F894809126
:1001E000DD009091DE00A091DF00B091E00022B729
:1001F00008B601FE05C02F3F19F00196A11DB11DE3
:100200003FBFBA2FA92F982F8827820F911DA11DBC
:10021000B11DBC01CD0143E0660F771F881F991FF8
:100220004A95D1F708952091E3003091E400281712
:10023000390771F49091E1008091E200981741F044
:10024000E091E100F0E0E856FF4F808190E00895F2
:100250008FEF9FEF089508951F93CF93DF93DC01F5
:100260005C962D913C915D972115310539F481E023
:1002700090E013969C938E9312973DC05196ED910A
:10028000FC91529750969C915097892F80951FB75B
:100290005E964C915E9741FB772770F941FD609522
:1002A000F8944081772311F0492B01C04823408303
:1002B000E9012197F1F748E0508160FF02C0592B16
:1002C00001C058235083E9012197F1F76695415009
:1002D00099F7772321F090818923808303C080815F
:1002E000982B90831FBF5C968D919C915D97019791
:1002F000F1F721E030E0C901DF91CF911F9108951E
:100300002091E3003091E4002817390769F48091C7
:10031000E2002091E10090E0805C9F4F821B9109F8
:1003200060E470E076D8089580E090E00895209130
:10033000E3003091E40028173907B9F49091E10007
:100340008091E200981789F0E091E100F0E0E85632
:10035000FF4F80812091E10030E02F5F3F4F2F73EE
:1003600033272093E10090E008958FEF9FEF0895E9
:10037000089580E090E008952F923F924F925F920F
:100380006F927F928F929F92AF92BF92CF92DF92A5
:10039000EF92FF920F931F93CF93DF9300D000D083
:1003A000CDB7DEB79C838B838CE087B916DF6B01FA
:1003B0007C0132E0832E912CA12CB12C0EDFDC01CC
:1003C000CB018C199D09AE09BF09883E9340A10558
:1003D000B105A0F328EEC20E23E0D21EE11CF11CF1
:1003E0008A9489288A288B2829F0812C912C540101
:1003F0008394E4CF369A3699FECF84B125B130E0AC
:10040000322F2227A901330F660B770B9A01AB011C
:10041000282B60E070E381E190E030D869017A0137
:1004200008EC15E08B819C81885B9F4F9A838983C0
:100430002B803C809CE4290E311CEB81FC81868959
:10044000863008F08650877087B9369A3699FECF85
:1004500064B185B170E0782BEB81FC8177A366A352
:10046000072E000C880B990B2AD54B015C01EB8100
:10047000FC8140AC51AC62AC73ACA301920171D66B
:1004800020E030E040E85AE379D59B01AC01C3019C
:10049000B20168D69B01AC01EB81FC8160AF71AF0A
:1004A00082AF93AFC501B4015CD6EB81FC8160AB38
:1004B00071AB82AB93AB9B01AC0160D5E981FA8152
:1004C0006083718382839383F10120813181428132
:1004D000538148D6F10160837183828393830150F5
:1004E000110909F0AACF20E030E049EB54E49ED690
:1004F00039D74B015C01B601DD0C880B990BDFD4B9
:1005000020E030E04AE754E491D620E030E040E8D3
:100510005AE334D5EB81FC81248D358D468D578D82
:100520002DD5A50194012AD5EB81FC81608B718BBF
:10053000828B938BF10110821182128213820F90B1
:100540000F900F900F90DF91CF911F910F91FF901F
:10055000EF90DF90CF90BF90AF909F908F907F9063
:100560006F905F904F903F902F900895CF92DF92C1
:10057000EF92FF9281E491E0FFDE26E636E646EE5A
:100580005FE354D66B017C0120E030E0A90191D4F7
:1005900018164CF4C092B001D092B101E092B201B1
:1005A000F092B30108C01092B0011092B101109204
:1005B000B2011092B30185EE90E0DEDE26E636E66B
:1005C00046EE5FE333D66B017C0120E030E0A90109
:1005D00070D418164CF4C092AC01D092AD01E092E8
:1005E000AE01F092AF0108C01092AC011092AD01C3
:1005F0001092AE011092AF01FF90EF90DF90CF907C
:100600000895009761F0FC0101900020E9F731970F
:10061000AF01481B590BBC0184EB91E040CD80E059
:1006200090E008958F929F92AF92BF920F931F9385
:10063000CF93DF93CDB7DEB7A1970FB6F894DEBFA7
:100640000FBECDBF19A2423008F44AE08E010F5D03
:100650001F4F842E912CA12CB12CA5019401ECD616
:10066000E62FB901CA0101501109EA3014F4E05D26
:1006700001C0E95CD801EC93232B242B252B69F7CF
:10068000C801BFDFA1960FB6F894DEBF0FBECDBF85
:10069000DF91CF911F910F91BF90AF909F908F905E
:1006A00008954F925F926F927F928F929F92AF9236
:1006B000BF92CF92DF92EF92FF926B017C01B42E3A
:1006C0009B01AC018DD6882319F088E790E024C007
:1006D00026013701E89477F82FEF3FEF4FE75FE708
:1006E000C301B2017DD681110CC02FEF3FEF4FE760
:1006F0005FE7C301B201DDD318161CF48CE790E06C
:100700000BC02FEF3FEF4FE75FE4C701B60122D6E2
:1007100018167CF480E890E0FF90EF90DF90CF9087
:10072000BF90AF909F908F907F906F905F904F9011
:1007300068CF2FEF3FEF4FE75FECC701B601B9D3AA
:1007400087FDE8CF20E030E0A901C701B601B1D3B1
:1007500087FF11C0E091B401F091B5010190F081E3
:10076000E02D6DE284EB91E009954C01F7FAF094ED
:10077000F7F8F09402C0812C912CA12C60E070E07D
:1007800080E09FE3AB1439F020E030E040E251E438
:100790004DD5A394F7CF9B01AC01C701B601E2D4BC
:1007A0002B013C01ABD56B017C0187D39B01AC01D4
:1007B000C301B201D6D42B013C014AE0C701B60106
:1007C00031DF7C01E80CF91CBB2069F0E091B40139
:1007D000F091B5010190F081E02D6EE284EB91E0A3
:1007E0000995E80EF91EDB2CDD20F9F020E030E061
:1007F00040E251E4C301B201C1D32B013C017ED5DB
:100800004B01A12CB12C4AE0C501B4010BDFE80E6D
:10081000F91EC501B40151D39B01AC01C301B20162
:10082000A0D42B013C01DA94DFCFC701FF90EF90F9
:10083000DF90CF90BF90AF909F908F907F906F9000
:100840005F904F90089540D80F931F93CF93DF93FD
:10085000EC0188819981009729F02A813B81261734
:10086000370780F48B016F5F7F4F6BD7009761F084
:10087000998388831B830A832C813D81232B11F468
:10088000FC01108281E001C080E0DF91CF911F91D7
:100890000F910895EF92FF920F931F93CF93DF93E1
:1008A000EC017B018A01BA01CFDF288139818111F6
:1008B0000CC02115310511F0C901ABD6198218827F
:1008C0001D821C821B821A8205C01D830C83B70106
:1008D000C90107D8CE01DF91CF911F910F91FF90F1
:1008E000EF9008951F920F920FB60F9211242F933D
:1008F0003F938F939F93AF93BF938091D900909133
:10090000DA00A091DB00B091DC003091D80026E045
:10091000230F2D3720F40296A11DB11D05C029E833
:10092000230F0396A11DB11D2093D8008093D900F9
:100930009093DA00A093DB00B093DC008091DD009F
:100940009091DE00A091DF00B091E0000196A11D22
:10095000B11D8093DD009093DE00A093DF00B09383
:10096000E000BF91AF919F918F913F912F910F9098
:100970000FBE0F901F9018951F920F920FB60F92F7
:1009800011242F933F934F935F936F937F938F9394
:100990009F93AF93BF93EF93FF93E091E300F091A8
:1009A000E400309709F451C0968DA685B7858585FA
:1009B00091FF04C09C91892329F447C09C9189230D
:1009C00009F043C0A389B4899C91858980958923C6
:1009D0008C93868997890197F1F7608D718DA68533
:1009E000B785558538E020E0CB010197F1F7822FDC
:1009F00090E095958795282F4C91452309F0206824
:100A0000315091F7868D81FD20958091E20090E034
:100A100001968F7399273091E100381749F0A09122
:100A2000E200B0E0A856BF4F2C938093E20003C0D1
:100A3000868D8160868F828D938D0197F1F7A389D2
:100A4000B4899C918589892B8C93FF91EF91BF91FB
:100A5000AF919F918F917F916F915F914F913F9156
:100A60002F910F900FBE0F901F901895CF93DF938B
:100A700000D0CDB7DEB778948AB582608ABD8AB5DA
:100A800081608ABD83B7826083BF83B7816083BF83
:100A900089B7826089BF80B7826080BF80B781607C
:100AA00080BF329A319A3098379A8CB580648CBD69
:100AB00060E083E056DB61E084E053DB1092CF011D
:100AC0001092CE011092CD011092CC011092CB0168
:100AD0001092CA018EE090E09093D1018093D001F2
:100AE0004091C001453008F521E030E02093CA0173
:100AF0003093CB016CE070E07093CD016093CC013A
:100B00002093CE013093CF013BB730623BBF65E30A
:100B100070E07093C8016093C70101C0220F4A952D
:100B2000EAF72093C9010197F1F78091CE019091E6
:100B3000CF01892B49F1E091E300F091E40081E0DD
:100B4000E43BF80709F1309739F0A389B4899C9107
:100B50008589809589238C938091D2018E7F8093A3
:100B6000D2011092E2001092E10084EB91E09093A8
:100B7000E4008093E300E091C701F091C801908107
:100B80008091C901892B808384E890E03ADD8BE86D
:100B900090E037DD109258011092570143E353E380
:100BA0006EED72E440935D0150935E0160935F01CE
:100BB0007093600180E090E0A0E0B4E4809379015C
:100BC00090937A01A0937B01B0937C0121E030E007
:100BD0003093FC002093FB004093010150930201ED
:100BE000609303017093040180931D0190931E0193
:100BF000A0931F01B0932001B9DC80E0C82E80E0F3
:100C0000D82EB4DC6091B0017091B1018091B20135
:100C10009091B30142E045DD8EE890E0F2DC609116
:100C2000AC017091AD018091AE019091AF0142E0B5
:100C300038DD8BE890E0E5DC2091B0013091B10126
:100C40004091B2015091B3016091A8017091A90146
:100C50008091AA019091AB0185D26093A801709315
:100C6000A9018093AA019093AB012091AC0130912E
:100C7000AD014091AE015091AF016091A40170911E
:100C8000A5018091A6019091A7016CD26093A40167
:100C90007093A5018093A6019093A70184EB91E046
:100CA0002FDB892B09F44BC084EB91E040DBF82E5D
:100CB00089831A820091A2011091A3010F5F1F4F37
:100CC000B8018EE991E0C0DD882391F020919E016A
:100CD00030919F018091A2019091A301BE016F5FAD
:100CE0007F4F820F931FFDD51093A3010093A201A4
:100CF0008AE0F8121CC04091A2015091A3016091BA
:100D00009E0170919F0184EB91E0C9D98BE890E03E
:100D100078DC8091A2019091A301892B31F0809120
:100D20009E0190919F01892B11F410929D0140E04A
:100D300050E06DE870E08EE991E0ACDDAFCFC1141A
:100D4000D10409F45ECF5CD95CCF1092B701109248
:100D5000B60188EE93E0A0E0B0E08093B8019093F4
:100D6000B901A093BA01B093BB018AE690E09093D9
:100D7000B5018093B4011092CB011092CA01109278
:100D8000CD011092CC011092CF011092CE011092A1
:100D9000D1011092D0016091D2016E7F6D7F60937E
:100DA000D2016695617081E0682784E0A3D961E093
:100DB00084E0D7D9EEE3F0E0E491E093C401E4E30A
:100DC000F0E0E491F0E0EE0FFF1FE65DFF4F85914C
:100DD00094919093C6018093C50160E083E0C1D9EE
:100DE0008091D20181FD03C061E083E083D983E07B
:100DF0008093C001EDE3F0E0E491E093C101E3E30F
:100E0000F0E0E491F0E0EE0FFF1FE25EFF4F85910E
:100E100094919093C3018093C20110929300109219
:100E200092001092950010929400109297001092E8
:100E3000960040E050E06DE870E082E990E02ADD45
:100E400010929F0110929E011092A1011092A00198
:100E50001092A3011092A20140E050E06DE870E012
:100E60008EE991E017CD80919E0190919F01D1D3A1
:100E70008091920090919300CCD38AE690E0909379
:100E8000B5018093B4018091E3009091E400845B0C
:100E9000914071F4E091C701F091C8019081809177
:100EA000C9018095892380831092E4001092E300A9
:100EB000089540D008F481E00895E89409C097FBB4
:100EC0003EF490958095709561957F4F8F4F9F4F21
:100ED0009923A9F0F92F96E9BB279395F695879565
:100EE00077956795B795F111F8CFFAF4BB0F11F428
:100EF00060FF1BC06F5F7F4F8F4F9F4F16C08823CF
:100F000011F096E911C0772321F09EE8872F762F04
:100F100005C0662371F096E8862F70E060E02AF045
:100F20009A95660F771F881FDAF7880F9695879531
:100F300097F90895990F0008550FAA0BE0E8FEEF06
:100F400016161706E807F907C0F012161306E4078D
:100F5000F50798F0621B730B840B950B39F40A2686
:100F600061F0232B242B252B21F408950A2609F464
:100F7000A140A6958FEF811D811D08950AD080C0E4
:100F800071D028F076D018F0952309F062C067C0C0
:100F9000ABC087D0A8F39923D9F35523C9F3950F94
:100FA00050E0551FAA27EE27FF27BB2700240894EF
:100FB000679520F4E20FF31FB41F0A1E220F331FA0
:100FC000441FAA1F6695A9F7779530F4F30FB41F55
:100FD0000A1E121E08F46395330F441FAA1F221F16
:100FE000769599F7879520F4B40F0A1E121E631F99
:100FF000440FAA1F221F331F8695A9F7862F712D34
:10100000602D11249F5750408AF0E1F088234AF068
:10101000EE0FFF1FBB1F661F771F881F91505040A8
:10102000A9F79E3F510570F014C05EC05F3FECF31E
:10103000983EDCF3869577956795B795F795E79594
:101040009F5FC1F7FE2B880F911D9695879597F9A5
:10105000089597F99F6780E870E060E008959FEF3A
:1010600080EC089500240A9416161706180609063F
:10107000089500240A94121613061406050608950E
:10108000092E0394000C11F4882352F0BB0F40F496
:10109000BF2B11F460FF04C06F5F7F4F8F4F9F4FD6
:1010A000089557FD9058440F551F59F05F3F71F058
:1010B0004795880F97FB991F61F09F3F79F08795BF
:1010C0000895121613061406551FF2CF4695F1DF48
:1010D00008C0161617061806991FF1CF86957105D8
:1010E000610508940895E894BB2766277727CB010C
:1010F00097F908952F923F924F925F926F927F924D
:101100008F929F92AF92BF92CF92DF92EF92FF9217
:101110000F931F93CF93DF93CDB7DEB7CA1BDB0BC3
:101120000FB6F894DEBF0FBECDBF09942A88398868
:1011300048885F846E847D848C849B84AA84B9846F
:10114000C884DF80EE80FD800C811B81AA81B9817B
:10115000CE0FD11D0FB6F894DEBF0FBECDBFED018F
:1011600008955058BB27AA270ED08ACF7BDF30F0D6
:1011700080DF20F031F49F3F11F41EF470CF0EF4A5
:10118000E095E7FB66CFE92F8CDF80F3BA176207A3
:1011900073078407950718F071F49EF5A4CF0EF439
:1011A000E0950B2EBA2FA02D0B01B90190010C0177
:1011B000CA01A0011124FF27591B99F0593F50F48F
:1011C000503E68F11A16F040A22F232F342F4427E7
:1011D000585FF3CF469537952795A795F0405395DF
:1011E000C9F77EF41F16BA0B620B730B840BBAF0AF
:1011F0009150A1F0FF0FBB1F661F771F881FC2F71A
:101200000EC0BA0F621F731F841F48F4879577952D
:101210006795B795F7959E3F08F0B3CF9395880FE4
:1012200008F09927EE0F9795879508950CD028CF51
:1012300020DF40F017DF30F021F45F3F19F009CFD5
:10124000511152CF0CCF2DDF98F39923C9F35523B9
:10125000B1F3951B550BBB27AA27621773078407A9
:1012600038F09F5F5F4F220F331F441FAA1FA9F35F
:1012700033D00E2E3AF0E0E830D091505040E69551
:10128000001CCAF729D0FE2F27D0660F771F881FB2
:10129000BB1F261737074807AB07B0E809F0BB0BA1
:1012A000802DBF01FF2793585F4F2AF09E3F5105C5
:1012B00068F0CFCE19CF5F3FECF3983EDCF3869514
:1012C00077956795B795F7959F5FC9F7880F911D3B
:1012D0009695879597F90895E1E0660F771F881F27
:1012E000BB1F621773078407BA0720F0621B730BDA
:1012F000840BBA0BEE1F88F7E0950895DADE88F0CC
:101300009F5790F0B92F9927B751A0F0D1F0660FF1
:10131000771F881F991F1AF0BA95C9F712C0B1300C
:1013200081F0E1DEB1E00895DECE672F782F8827C7
:10133000B85F39F0B93FCCF3869577956795B3954B
:10134000D9F73EF490958095709561957F4F8F4FBA
:101350009F4F0895EFDD08F48FEF089511F40EF418
:101360007ECE42C0A6DED0F39923D9F3CEF39F57A9
:10137000550B87FF47D00024A0E640EA9001805833
:101380005695979528F4805C660F771F881F20F08C
:1013900026173707480730F4621B730B840B20298C
:1013A00031294A2BA69517940794202531254A27E1
:1013B00058F7660F771F881F20F026173707480752
:1013C00030F4620B730B840B200D311D411DA09571
:1013D00081F7B901842F9158880F969587950895C4
:1013E000A9DD880B990B08959F3F31F0915020F4AF
:1013F000879577956795B795880F911D96958795F1
:1014000097F9089591505040660F771F881FD2F7C3
:10141000089597FB072E16F4009406D077FD08D0A8
:1014200049D007FC05D03EF4909581959F4F0895D3
:10143000709561957F4F0895A1E21A2EAA1BBB1BE0
:10144000FD010DC0AA1FBB1FEE1FFF1FA217B30790
:10145000E407F50720F0A21BB30BE40BF50B661FA6
:10146000771F881F991F1A9469F76095709580956A
:1014700090959B01AC01BD01CF010895052E97FB0E
:1014800016F400940FD057FD05D0D6DF07FC02D02C
:1014900046F408C050954095309521953F4F4F4FE9
:1014A0005F4F089590958095709561957F4F8F4F10
:1014B0009F4F0895AA1BBB1B51E107C0AA1FBB1F6A
:1014C000A617B70710F0A61BB70B881F991F5A95D0
:1014D000A9F780959095BC01CD010895EE0FFF1FEF
:1014E0000590F491E02D0994CF93DF93823091051C
:1014F00010F482E090E0E091D501F091D60120E077
:1015000030E0C0E0D0E0309711F1408151814817C0
:101510005907C0F04817590761F4828193812097D9
:1015200019F09B838A832BC09093D6018093D501B9
:1015300026C02115310519F04217530718F49A01F6
:10154000BE01DF01EF010280F381E02DDCCF211528
:10155000310509F1281B390B2430310590F412961E
:101560008D919C9113976115710521F0FB01938377
:10157000828304C09093D6018093D501FD013296F9
:1015800044C0FD01E20FF31F819391932250310972
:101590002D933C933AC02091D3013091D401232B59
:1015A00041F420916200309163003093D401209384
:1015B000D30120916000309161002115310541F483
:1015C0002DB73EB74091640050916500241B350B48
:1015D000E091D301F091D401E217F307A0F42E1BA0
:1015E0003F0B2817390778F0AC014E5F5F4F241787
:1015F000350748F04E0F5F1F5093D4014093D3013D
:101600008193919302C0E0E0F0E0CF01DF91CF91B0
:1016100008950F931F93CF93DF93009709F48CC025
:10162000FC013297138212820091D5011091D601EC
:101630000115110581F420813181820F931F2091C2
:10164000D3013091D4012817390779F5F093D401EB
:10165000E093D30171C0D80140E050E0AE17BF075E
:1016600050F412962D913C911397AD01211531053F
:1016700009F1D901F3CF9D01DA013383228360811F
:101680007181860F971F8217930769F4EC012881F7
:101690003981260F371F2E5F3F4F318320838A8188
:1016A0009B8193838283452B29F4F093D601E093A9
:1016B000D50142C01396FC93EE931297ED01499128
:1016C00059919E01240F351FE217F30771F48081B1
:1016D0009181840F951F029611969C938E9382811F
:1016E000938113969C938E931297E0E0F0E0D801DB
:1016F00012968D919C911397009719F0F8018C0127
:10170000F6CF8D919C9198012E5F3F4F820F931FD2
:101710002091D3013091D4012817390769F430970B
:1017200029F41092D6011092D50102C013821282C0
:101730001093D4010093D301DF91CF911F910F91AA
:101740000895A0E0B0E0E6EAFBE0D8CCEC01009719
:1017500019F4CB01C9DEB4C0FC01E60FF71F9C01F0
:1017600022503109E217F30708F4A8C0D9010D91FE
:101770001C91119706171707A8F00530110508F4FA
:101780009BC0C80104978617970708F495C00250BC
:101790001109061B170B019311936D937C93CF01D5
:1017A00038DF8AC05B01A01AB10A4C01800E911E7D
:1017B000A091D501B091D60140E050E0E12CF12C90
:1017C000109709F44AC0A815B905D1F56D907C9021
:1017D0001197630182E0C80ED11CCA14DB0480F1AA
:1017E000A3014A195B096A0182E0C80ED11C129656
:1017F000BC9012971396AC91B5E0CB16D10440F093
:10180000B282A38351834083D9016D937C930AC034
:101810000E5F1F4FC301800F911FF90191838083D9
:10182000EB2DFA2FE114F10431F0D7011396FC935C
:10183000EE93129741C0F093D601E093D5013CC0DE
:101840008D919C9111974817590708F4AC017D01BF
:1018500012960D90BC91A02DB3CF8091D3019091A1
:10186000D40188159905E1F446175707C8F480910B
:10187000600090916100009741F48DB79EB7409150
:10188000640050916500841B950BE817F907B0F4CC
:10189000F093D401E093D301F901718360830CC00C
:1018A000CB0122DE7C01009749F0A801BE0110D0D7
:1018B000CE01AFDEC70104C0CE0102C080E090E0DF
:1018C000CDB7DEB7EEE036CC81E090E0F89410C002
:1018D000FB01DC0102C001900D9241505040D8F74D
:1018E0000895FB01DC0101900D920020E1F70895BD
:1018F00010E0C8E2D0E003C0FE01F0DD2196C9325D
:08190000D107D1F7F894FFCFE5
:101908000000D7018000000000002C014F00B90141
:101918002B018001970113016E616E00696E6600EC
:101928006F7666003C494E49543E000D0A002C2053
:021938000000AD
:00000001FF
